:100000000EC015C014C013C012C011C010C00FC064
:100010000EC00DC00CC00BC00AC009C008C011241E
:100020001FBECFE5D2E0DEBFCDBF6CD0E1C0E8CFD0
:10003000C19A83ED90E30197F1F700C00000C198E9
:1000400083ED90E30197F1F700C000000895C39A93
:1000500083ED90E30197F1F700C00000C39883EDB2
:1000600090E30197F1F700C00000089588B38A601B
:1000700088BB83ED90E30197F1F700C0000088B3DF
:10008000857F88BB83ED90E30197F1F700C0000006
:10009000089588B3896088BB83ED90E30197F1F7F9
:1000A00000C0000088B3867F88BB83ED90E3019792
:1000B000F1F700C00000089588B38B6088BB83ED22
:1000C00090E30197F1F700C0000088B3847F88BBFC
:1000D00083ED90E30197F1F700C00000089588B325
:1000E0008D6088BB83ED90E30197F1F700C00000BD
:1000F00088B3827F88BB83ED90E30197F1F700C05E
:100100000000089587B38F6087BBBC98B49BFECF77
:100110008FDFB4990CC0C19A2FE38DE093E021509A
:1001200080409040E1F700C00000C19857C08FDFC9
:10013000B4990CC0C39A2FE38DE093E02150804026
:100140009040E1F700C00000C39848C08FDFB49929
:100150000FC088B38A6088BB2FE38DE093E0215005
:1001600080409040E1F700C0000088B3857F35C033
:1001700090DFB4990FC088B3896088BB2FE38DE00E
:1001800093E0215080409040E1F700C0000088B328
:10019000867F23C091DFB4990FC088B38B6088BB82
:1001A0002FE38DE093E0215080409040E1F700C0C4
:1001B000000088B3847F11C092DFB499A7CF88B3C1
:1001C0008D6088BB2FE38DE093E02150804090400C
:1001D000E1F700C0000088B3827F88BB2FE38DE089
:1001E00093E0215080409040E1F700C000008ECFA6
:0401F000F894FFCFB1
:00000001FF
